{
    "_format": "hh-sol-artifact-1",
    "contractName": "ProductVerification",
    "sourceName": "contracts/ProductVerification.sol",
    "abi": [
        {
            "anonymous": false,
            "inputs": [
                {
                    "indexed": false,
                    "internalType": "bytes32",
                    "name": "productHash",
                    "type": "bytes32"
                },
                {
                    "indexed": false,
                    "internalType": "string",
                    "name": "name",
                    "type": "string"
                },
                {
                    "indexed": false,
                    "internalType": "address",
                    "name": "manufacturer",
                    "type": "address"
                }
            ],
            "name": "ProductRegistered",
            "type": "event"
        },
        {
            "anonymous": false,
            "inputs": [
                {
                    "indexed": false,
                    "internalType": "bytes32",
                    "name": "productHash",
                    "type": "bytes32"
                },
                {
                    "indexed": false,
                    "internalType": "address",
                    "name": "scanner",
                    "type": "address"
                },
                {
                    "indexed": false,
                    "internalType": "string",
                    "name": "userType",
                    "type": "string"
                }
            ],
            "name": "ProductScanned",
            "type": "event"
        },
        {
            "inputs": [
                {
                    "internalType": "bytes32",
                    "name": "_productHash",
                    "type": "bytes32"
                }
            ],
            "name": "getProduct",
            "outputs": [
                {
                    "internalType": "string",
                    "name": "name",
                    "type": "string"
                },
                {
                    "internalType": "string",
                    "name": "manufacturingDate",
                    "type": "string"
                },
                {
                    "internalType": "string",
                    "name": "batchNumber",
                    "type": "string"
                },
                {
                    "internalType": "string",
                    "name": "location",
                    "type": "string"
                },
                {
                    "internalType": "string",
                    "name": "additionalDetails",
                    "type": "string"
                },
                {
                    "internalType": "address",
                    "name": "manufacturer",
                    "type": "address"
                },
                {
                    "internalType": "uint256",
                    "name": "timestamp",
                    "type": "uint256"
                },
                {
                    "internalType": "bool",
                    "name": "isRegistered",
                    "type": "bool"
                }
            ],
            "stateMutability": "view",
            "type": "function"
        },
        {
            "inputs": [
                {
                    "internalType": "bytes32",
                    "name": "_productHash",
                    "type": "bytes32"
                },
                {
                    "internalType": "uint256",
                    "name": "_index",
                    "type": "uint256"
                }
            ],
            "name": "getScanLog",
            "outputs": [
                {
                    "internalType": "address",
                    "name": "scanner",
                    "type": "address"
                },
                {
                    "internalType": "string",
                    "name": "location",
                    "type": "string"
                },
                {
                    "internalType": "string",
                    "name": "userType",
                    "type": "string"
                },
                {
                    "internalType": "uint256",
                    "name": "timestamp",
                    "type": "uint256"
                }
            ],
            "stateMutability": "view",
            "type": "function"
        },
        {
            "inputs": [
                {
                    "internalType": "bytes32",
                    "name": "_productHash",
                    "type": "bytes32"
                }
            ],
            "name": "getScanLogsCount",
            "outputs": [
                {
                    "internalType": "uint256",
                    "name": "",
                    "type": "uint256"
                }
            ],
            "stateMutability": "view",
            "type": "function"
        },
        {
            "inputs": [
                {
                    "internalType": "bytes32",
                    "name": "_productHash",
                    "type": "bytes32"
                },
                {
                    "internalType": "string",
                    "name": "_location",
                    "type": "string"
                },
                {
                    "internalType": "string",
                    "name": "_userType",
                    "type": "string"
                }
            ],
            "name": "logScan",
            "outputs": [],
            "stateMutability": "nonpayable",
            "type": "function"
        },
        {
            "inputs": [
                {
                    "internalType": "bytes32",
                    "name": "",
                    "type": "bytes32"
                }
            ],
            "name": "products",
            "outputs": [
                {
                    "internalType": "string",
                    "name": "name",
                    "type": "string"
                },
                {
                    "internalType": "string",
                    "name": "manufacturingDate",
                    "type": "string"
                },
                {
                    "internalType": "string",
                    "name": "batchNumber",
                    "type": "string"
                },
                {
                    "internalType": "string",
                    "name": "location",
                    "type": "string"
                },
                {
                    "internalType": "string",
                    "name": "additionalDetails",
                    "type": "string"
                },
                {
                    "internalType": "address",
                    "name": "manufacturer",
                    "type": "address"
                },
                {
                    "internalType": "uint256",
                    "name": "timestamp",
                    "type": "uint256"
                },
                {
                    "internalType": "bool",
                    "name": "isRegistered",
                    "type": "bool"
                }
            ],
            "stateMutability": "view",
            "type": "function"
        },
        {
            "inputs": [
                {
                    "internalType": "string",
                    "name": "_name",
                    "type": "string"
                },
                {
                    "internalType": "string",
                    "name": "_manufacturingDate",
                    "type": "string"
                },
                {
                    "internalType": "string",
                    "name": "_batchNumber",
                    "type": "string"
                },
                {
                    "internalType": "string",
                    "name": "_location",
                    "type": "string"
                },
                {
                    "internalType": "string",
                    "name": "_additionalDetails",
                    "type": "string"
                },
                {
                    "internalType": "bytes32",
                    "name": "_productHash",
                    "type": "bytes32"
                }
            ],
            "name": "registerProduct",
            "outputs": [],
            "stateMutability": "nonpayable",
            "type": "function"
        },
        {
            "inputs": [
                {
                    "internalType": "bytes32",
                    "name": "",
                    "type": "bytes32"
                },
                {
                    "internalType": "uint256",
                    "name": "",
                    "type": "uint256"
                }
            ],
            "name": "scanLogs",
            "outputs": [
                {
                    "internalType": "address",
                    "name": "scanner",
                    "type": "address"
                },
                {
                    "internalType": "string",
                    "name": "location",
                    "type": "string"
                },
                {
                    "internalType": "string",
                    "name": "userType",
                    "type": "string"
                },
                {
                    "internalType": "uint256",
                    "name": "timestamp",
                    "type": "uint256"
                }
            ],
            "stateMutability": "view",
            "type": "function"
        },
        {
            "inputs": [
                {
                    "internalType": "bytes32",
                    "name": "_productHash",
                    "type": "bytes32"
                }
            ],
            "name": "verifyProduct",
            "outputs": [
                {
                    "internalType": "bool",
                    "name": "",
                    "type": "bool"
                }
            ],
            "stateMutability": "view",
            "type": "function"
        }
    ],
    "bytecode": "0x608060405234801561001057600080fd5b50611b6f806100206000396000f3fe608060405234801561001057600080fd5b50600436106100885760003560e01c8063ab83854b1161005b578063ab83854b1461015e578063b29e52b014610191578063eda45965146101ad578063f3b37441146101dd57610088565b80633a20e9df1461008d57806379054391146100c45780638a47a02a146100fb5780638f3b04231461012b575b600080fd5b6100a760048036038101906100a291906110bc565b6101f9565b6040516100bb9897969594939291906111ee565b60405180910390f35b6100de60048036038101906100d991906110bc565b6105c0565b6040516100f29897969594939291906111ee565b60405180910390f35b610115600480360381019061011091906110bc565b6108dd565b604051610122919061128f565b60405180910390f35b610145600480360381019061014091906112d6565b6108fd565b6040516101559493929190611316565b60405180910390f35b610178600480360381019061017391906112d6565b610b48565b6040516101889493929190611316565b60405180910390f35b6101ab60048036038101906101a6919061149e565b610cc5565b005b6101c760048036038101906101c291906110bc565b610e59565b6040516101d49190611529565b60405180910390f35b6101f760048036038101906101f29190611544565b610e85565b005b60608060608060606000806000806000808b8152602001908152602001600020604051806101000160405290816000820180546102359061168c565b80601f01602080910402602001604051908101604052809291908181526020018280546102619061168c565b80156102ae5780601f10610283576101008083540402835291602001916102ae565b820191906000526020600020905b81548152906001019060200180831161029157829003601f168201915b505050505081526020016001820180546102c79061168c565b80601f01602080910402602001604051908101604052809291908181526020018280546102f39061168c565b80156103405780601f1061031557610100808354040283529160200191610340565b820191906000526020600020905b81548152906001019060200180831161032357829003601f168201915b505050505081526020016002820180546103599061168c565b80601f01602080910402602001604051908101604052809291908181526020018280546103859061168c565b80156103d25780601f106103a7576101008083540402835291602001916103d2565b820191906000526020600020905b8154815290600101906020018083116103b557829003601f168201915b505050505081526020016003820180546103eb9061168c565b80601f01602080910402602001604051908101604052809291908181526020018280546104179061168c565b80156104645780601f1061043957610100808354040283529160200191610464565b820191906000526020600020905b81548152906001019060200180831161044757829003601f168201915b5050505050815260200160048201805461047d9061168c565b80601f01602080910402602001604051908101604052809291908181526020018280546104a99061168c565b80156104f65780601f106104cb576101008083540402835291602001916104f6565b820191906000526020600020905b8154815290600101906020018083116104d957829003601f168201915b505050505081526020016005820160009054906101000a900473ffffffffffffffffffffffffffffffffffffffff1673ffffffffffffffffffffffffffffffffffffffff1673ffffffffffffffffffffffffffffffffffffffff168152602001600682015481526020016007820160009054906101000a900460ff1615151515815250509050806000015181602001518260400151836060015184608001518560a001518660c001518760e001519850985098509850985098509850985050919395975091939597565b60006020528060005260406000206000915090508060000180546105e39061168c565b80601f016020809104026020016040519081016040528092919081815260200182805461060f9061168c565b801561065c5780601f106106315761010080835404028352916020019161065c565b820191906000526020600020905b81548152906001019060200180831161063f57829003601f168201915b5050505050908060010180546106719061168c565b80601f016020809104026020016040519081016040528092919081815260200182805461069d9061168c565b80156106ea5780601f106106bf576101008083540402835291602001916106ea565b820191906000526020600020905b8154815290600101906020018083116106cd57829003601f168201915b5050505050908060020180546106ff9061168c565b80601f016020809104026020016040519081016040528092919081815260200182805461072b9061168c565b80156107785780601f1061074d57610100808354040283529160200191610778565b820191906000526020600020905b81548152906001019060200180831161075b57829003601f168201915b50505050509080600301805461078d9061168c565b80601f01602080910402602001604051908101604052809291908181526020018280546107b99061168c565b80156108065780601f106107db57610100808354040283529160200191610806565b820191906000526020600020905b8154815290600101906020018083116107e957829003601f168201915b50505050509080600401805461081b9061168c565b80601f01602080910402602001604051908101604052809291908181526020018280546108479061168c565b80156108945780601f1061086957610100808354040283529160200191610894565b820191906000526020600020905b81548152906001019060200180831161087757829003601f168201915b5050505050908060050160009054906101000a900473ffffffffffffffffffffffffffffffffffffffff16908060060154908060070160009054906101000a900460ff16905088565b600060016000838152602001908152602001600020805490509050919050565b600060608060006001600087815260200190815260200160002080549050851061095c576040517f08c379a000000000000000000000000000000000000000000000000000000000815260040161095390611709565b60405180910390fd5b600060016000888152602001908152602001600020868154811061098357610982611729565b5b90600052602060002090600402016040518060800160405290816000820160009054906101000a900473ffffffffffffffffffffffffffffffffffffffff1673ffffffffffffffffffffffffffffffffffffffff1673ffffffffffffffffffffffffffffffffffffffff168152602001600182018054610a029061168c565b80601f0160208091040260200160405190810160405280929190818152602001828054610a2e9061168c565b8015610a7b5780601f10610a5057610100808354040283529160200191610a7b565b820191906000526020600020905b815481529060010190602001808311610a5e57829003601f168201915b50505050508152602001600282018054610a949061168c565b80601f0160208091040260200160405190810160405280929190818152602001828054610ac09061168c565b8015610b0d5780601f10610ae257610100808354040283529160200191610b0d565b820191906000526020600020905b815481529060010190602001808311610af057829003601f168201915b505050505081526020016003820154815250509050806000015181602001518260400151836060015194509450945094505092959194509250565b60016020528160005260406000208181548110610b6457600080fd5b9060005260206000209060040201600091509150508060000160009054906101000a900473ffffffffffffffffffffffffffffffffffffffff1690806001018054610bae9061168c565b80601f0160208091040260200160405190810160405280929190818152602001828054610bda9061168c565b8015610c275780601f10610bfc57610100808354040283529160200191610c27565b820191906000526020600020905b815481529060010190602001808311610c0a57829003601f168201915b505050505090806002018054610c3c9061168c565b80601f0160208091040260200160405190810160405280929190818152602001828054610c689061168c565b8015610cb55780601f10610c8a57610100808354040283529160200191610cb5565b820191906000526020600020905b815481529060010190602001808311610c9857829003601f168201915b5050505050908060030154905084565b60008084815260200190815260200160002060070160009054906101000a900460ff16610d27576040517f08c379a0000000000000000000000000000000000000000000000000000000008152600401610d1e906117a4565b60405180910390fd5b6001600084815260200190815260200160002060405180608001604052803373ffffffffffffffffffffffffffffffffffffffff16815260200184815260200183815260200142815250908060018154018082558091505060019003906000526020600020906004020160009091909190915060008201518160000160006101000a81548173ffffffffffffffffffffffffffffffffffffffff021916908373ffffffffffffffffffffffffffffffffffffffff1602179055506020820151816001019081610df69190611970565b506040820151816002019081610e0c9190611970565b506060820151816003015550507fa3a0f10fbd182d854dc97846472b21bede20cfe9765cab83ed1aaf6726356788833383604051610e4c93929190611a51565b60405180910390a1505050565b600080600083815260200190815260200160002060070160009054906101000a900460ff169050919050565b60008082815260200190815260200160002060070160009054906101000a900460ff1615610ee8576040517f08c379a0000000000000000000000000000000000000000000000000000000008152600401610edf90611adb565b60405180910390fd5b6040518061010001604052808781526020018681526020018581526020018481526020018381526020013373ffffffffffffffffffffffffffffffffffffffff168152602001428152602001600115158152506000808381526020019081526020016000206000820151816000019081610f629190611970565b506020820151816001019081610f789190611970565b506040820151816002019081610f8e9190611970565b506060820151816003019081610fa49190611970565b506080820151816004019081610fba9190611970565b5060a08201518160050160006101000a81548173ffffffffffffffffffffffffffffffffffffffff021916908373ffffffffffffffffffffffffffffffffffffffff16021790555060c0820151816006015560e08201518160070160006101000a81548160ff0219169083151502179055509050507f7e53f60fa57ddc6aa8994f98208636b1cbc7f233d266bdf70f6a38b8b9f4ef7d81873360405161106293929190611afb565b60405180910390a1505050505050565b6000604051905090565b600080fd5b600080fd5b6000819050919050565b61109981611086565b81146110a457600080fd5b50565b6000813590506110b681611090565b92915050565b6000602082840312156110d2576110d161107c565b5b60006110e0848285016110a7565b91505092915050565b600081519050919050565b600082825260208201905092915050565b60005b83811015611123578082015181840152602081019050611108565b60008484015250505050565b6000601f19601f8301169050919050565b600061114b826110e9565b61115581856110f4565b9350611165818560208601611105565b61116e8161112f565b840191505092915050565b600073ffffffffffffffffffffffffffffffffffffffff82169050919050565b60006111a482611179565b9050919050565b6111b481611199565b82525050565b6000819050919050565b6111cd816111ba565b82525050565b60008115159050919050565b6111e8816111d3565b82525050565b6000610100820190508181036000830152611209818b611140565b9050818103602083015261121d818a611140565b905081810360408301526112318189611140565b905081810360608301526112458188611140565b905081810360808301526112598187611140565b905061126860a08301866111ab565b61127560c08301856111c4565b61128260e08301846111df565b9998505050505050505050565b60006020820190506112a460008301846111c4565b92915050565b6112b3816111ba565b81146112be57600080fd5b50565b6000813590506112d0816112aa565b92915050565b600080604083850312156112ed576112ec61107c565b5b60006112fb858286016110a7565b925050602061130c858286016112c1565b9150509250929050565b600060808201905061132b60008301876111ab565b818103602083015261133d8186611140565b905081810360408301526113518185611140565b905061136060608301846111c4565b95945050505050565b600080fd5b600080fd5b7f4e487b7100000000000000000000000000000000000000000000000000000000600052604160045260246000fd5b6113ab8261112f565b810181811067ffffffffffffffff821117156113ca576113c9611373565b5b80604052505050565b60006113dd611072565b90506113e982826113a2565b919050565b600067ffffffffffffffff82111561140957611408611373565b5b6114128261112f565b9050602081019050919050565b82818337600083830152505050565b600061144161143c846113ee565b6113d3565b90508281526020810184848401111561145d5761145c61136e565b5b61146884828561141f565b509392505050565b600082601f83011261148557611484611369565b5b813561149584826020860161142e565b91505092915050565b6000806000606084860312156114b7576114b661107c565b5b60006114c5868287016110a7565b935050602084013567ffffffffffffffff8111156114e6576114e5611081565b5b6114f286828701611470565b925050604084013567ffffffffffffffff81111561151357611512611081565b5b61151f86828701611470565b9150509250925092565b600060208201905061153e60008301846111df565b92915050565b60008060008060008060c087890312156115615761156061107c565b5b600087013567ffffffffffffffff81111561157f5761157e611081565b5b61158b89828a01611470565b965050602087013567ffffffffffffffff8111156115ac576115ab611081565b5b6115b889828a01611470565b955050604087013567ffffffffffffffff8111156115d9576115d8611081565b5b6115e589828a01611470565b945050606087013567ffffffffffffffff81111561160657611605611081565b5b61161289828a01611470565b935050608087013567ffffffffffffffff81111561163357611632611081565b5b61163f89828a01611470565b92505060a061165089828a016110a7565b9150509295509295509295565b7f4e487b7100000000000000000000000000000000000000000000000000000000600052602260045260246000fd5b600060028204905060018216806116a457607f821691505b6020821081036116b7576116b661165d565b5b50919050565b7f5363616e206c6f6720696e646578206f7574206f6620626f756e647300000000600082015250565b60006116f3601c836110f4565b91506116fe826116bd565b602082019050919050565b60006020820190508181036000830152611722816116e6565b9050919050565b7f4e487b7100000000000000000000000000000000000000000000000000000000600052603260045260246000fd5b7f50726f64756374206e6f74207265676973746572656400000000000000000000600082015250565b600061178e6016836110f4565b915061179982611758565b602082019050919050565b600060208201905081810360008301526117bd81611781565b9050919050565b60008190508160005260206000209050919050565b60006020601f8301049050919050565b600082821b905092915050565b6000600883026118267fffffffffffffffffffffffffffffffffffffffffffffffffffffffffffffffff826117e9565b61183086836117e9565b95508019841693508086168417925050509392505050565b6000819050919050565b600061186d611868611863846111ba565b611848565b6111ba565b9050919050565b6000819050919050565b61188783611852565b61189b61189382611874565b8484546117f6565b825550505050565b600090565b6118b06118a3565b6118bb81848461187e565b505050565b5b818110156118df576118d46000826118a8565b6001810190506118c1565b5050565b601f821115611924576118f5816117c4565b6118fe846117d9565b8101602085101561190d578190505b611921611919856117d9565b8301826118c0565b50505b505050565b600082821c905092915050565b600061194760001984600802611929565b1980831691505092915050565b60006119608383611936565b9150826002028217905092915050565b611979826110e9565b67ffffffffffffffff81111561199257611991611373565b5b61199c825461168c565b6119a78282856118e3565b600060209050601f8311600181146119da57600084156119c8578287015190505b6119d28582611954565b865550611a3a565b601f1984166119e8866117c4565b60005b82811015611a10578489015182556001820191506020850194506020810190506119eb565b86831015611a2d5784890151611a29601f891682611936565b8355505b6001600288020188555050505b505050505050565b611a4b81611086565b82525050565b6000606082019050611a666000830186611a42565b611a7360208301856111ab565b8181036040830152611a858184611140565b9050949350505050565b7f50726f6475637420616c72656164792072656769737465726564000000000000600082015250565b6000611ac5601a836110f4565b9150611ad082611a8f565b602082019050919050565b60006020820190508181036000830152611af481611ab8565b9050919050565b6000606082019050611b106000830186611a42565b8181036020830152611b228185611140565b9050611b3160408301846111ab565b94935050505056fea264697066735822122059f47d53ff1d027c902a0e7d6ac17e96c449a291655b4d5a74e11b09bc39cbc964736f6c63430008110033",
    "linkReferences": {},
    "deployedLinkReferences": {}
}